:100000001ACE34CE33CE32CE31CE30CE2FCE2ECE0F
:100010002DCE2CCE2BCE2ACE29CE28CE27CE200EEA
:10002000F30DD70D1A1C980D670D340D120DFE0C33
:10003000421B641BEA0CD20CA70C8B185B0C3D0C0A
:10004000220C0E0CE60BC80BB40BA00B5F188C0B2C
:100050005F0B480B340B070BD00ABC0A9A0A7E0AC6
:10006000650A510A3D0A260A120AF709CA09A609B1
:1000700092098409700958093F0929091509E908F5
:10008000BE08910876086D084A083608240810084A
:10009000FE07E007D207C407B007800753073F07F2
:1000A0002B07FE06E706DC06C506AE06A506960685
:1000B0007F06640653063B060806D505AC057905A0
:1000C00057053C051405F204DB04C404B0048C0499
:1000D0006F04540440041C041304E603DD03C1034D
:1000E0008E0382036B03600345032E031A03DE02B3
:1000F000BC02A5028A0257022E020202F701E601A3
:100100001A1CF81BB91B941B641B421B0F1BE91A1A
:10011000B61A8A1A681A381A0B1ADC19C819B419CF
:100120009A196E192219E318B3188B185F183F1823
:100130001C18EF17C917B7179917771763174117C7
:100140002D17EE16DA16BF16A71693167F16711620
:100150005E1642161616FB15CF15A31579156515F3
:100160005115411520150C15F814DB14CF14B314D8
:100170009C14831463144F143B1427141314FF139B
:10018000ED13B613981384136913551337132813FB
:1001900014130013EC12BF12AB129D1283126F12D4
:1001A000631244121E121012D111A71168113C11D2
:1001B00028111411EF10CD10A710741066103E1006
:1001C0002A1016100210EE0FD00FBC0F8F0F7B0FEE
:1001D000670F530F3F0F2B0F170FEB0ED70EC30EEA
:1001E000AF0E7C0E500E831F03180B049249263469
:1001F00071449AD1C512487F0E03550846802334B6
:1002000000806728031602800200000200049200AA
:100210000000492A9748370037003700A700370009
:100220009F1337002225C001BD01C201BC017F150B
:10023000033B0222801A180110C002310034003141
:1002400000FA003100FC00310049093100E92E6458
:100250000034006400660067440376026410000402
:1002600010000080000412492A10400010400002D3
:10027000000010492490380037003800A8003800EA
:10028000F212BF01C501C001C5016716029502192E
:10029000955E6655501800B9001B004E001B00B754
:1002A000001B000606671802B00245541645541597
:1002B0000E00EB010E00E7020E000E12771803CAC3
:1002C000026208A08A190408408310004F0310003E
:1002D0000C1711002F0211004E0311004F03673B52
:1002E00003FA020B12492492498D1C8927FCAB4763
:1002F0002249FF2AD1C8927FC9003000F60032009F
:100300002F0032005E003200F5003200D0053200CE
:10031000DA2A64002F0064005E006726039E1A84B8
:1003200010002090010080400412092ABA4067188A
:100330000239034440024440010E00EB010E00E785
:10034000020E00F9167318025003299A9BA99A9A73
:100350002C002F032D0010022D002F032D008813D9
:10036000671802E6044554024554016718027603F3
:100370005550065550050E00EB010E00E7020E0029
:100380004212001B02CD03800400B85540086F2EB6
:1003900003A503468000000003445200000C222203
:1003A00090000060802E0035002E006A002E0004B0
:1003B000012E00DE052E00D22A5D0035005D006AA8
:1003C00000001B02CD03800100B85510080300088F
:1003D000000300120003001C000300BB3173100275
:1003E000480919AB59A9671E03F70304944B2495D8
:1003F0003524A25924A8400D0060020E008D000E85
:100400000028010E00C3010E005E020E0060020E05
:10041000003F1873100248092AAB6AAA001D032C7A
:10042000046080880000E304044000060300080024
:100430000300120003001800030026000300F12649
:100440006F0B024804159A9457007F02580013015D
:1004500058007F026316025F0448800E22001030AD
:1004600000320030009400300095003000900567A5
:100470001E027C048001002E000400A00F008A00F0
:100480000F00BE010F005D020F00A519001D039CA7
:10049000046000880002E300044000160300090025
:1004A0000300130003001D00030027000300F026D3
:1004B0006726039F1884104008820801C2082004A0
:1004C00041040040671802CF044554424554410E90
:1004D00000EB010E00E7020E000A13671802E604A3
:1004E0005550025550010E00EB010E00E7020E00C0
:1004F0000614771803000545865B05C65B05B04208
:100500001000530311002A0211005203110053037B
:100510001100EF12672603280584824008924801E3
:10052000C241200449240040300034003000A000C3
:1005300030009001300048081F03900167180247FF
:10054000056AA003AAA0011000E4011000E2021055
:1005500000E3021000BB1277180365050E382182F4
:10056000262082482310002F0210004F0310000C99
:100570001711002F0211004F036344039805608296
:10058000082410410482400010092A0208209041EA
:100590000412090000402480330038003300A20018
:1005A00033001A0B5003AE015203AD01675002C570
:1005B000051A5A65679A659A9B9A5A65679A659A69
:1005C0009B9A5A65651A00B9001B0050001B00B9C0
:1005D000001B009910674403F40560000020100917
:1005E0000402010090482A00000080402410080402
:1005F00002412080370039003700A7003700401142
:100600007F03C0018103BF01674403270660000028
:100610002480090492000000492A0000009200246E
:100620001248000001248035003B003500AA003547
:100630000007117C03C0017D03C001000C024306CA
:10064000900D0006009D0306003B050600320806DB
:1006500000E30A831F03180B049249263251C89AFB
:10066000C94722486718026F062A9A9BAA9A9A0ECF
:10067000004B0310002B021000490310002F130041
:1006800017028A060545460545440600360206005F
:100690005303060062156F1A034F1704924928C6C8
:1006A000492492518073100248091957595500176F
:1006B00002B9065545465545440500380205005621
:1006C0000305008713671802D00645445645445574
:1006D0000E00EB010E00E7020E004611001702F2B9
:1006E00006145406145404001702F20605540605B5
:1006F00054040400F3010400EE0204008713671F92
:10070000030F07049249263449389AD124E248312C
:100710000007013200360032006C0032000701325F
:1007200000ED073200D72764006E00670C02330724
:100730004124125E00D9015E00D80266006506679A
:100740002803FD088482000482000082000410490E
:100750002A8741831F03640704924926324A389A44
:10076000C928E2482F000B013200370032006E002A
:1007700032000901320007083200552F6400700072
:10078000831D039007049249263251CBD64A397211
:100790002F000B013200370032006E0032000901D9
:1007A000320007083200552F6400390064007000E1
:1007B0006726039E1A8000002490410082000410E6
:1007C000492ABA00672202EE0725999A5AE9666615
:1007D00096A06F1803501B10925424B30925424869
:1007E000672202EE0725599A5AE9566696A032000A
:1007F0009E003500330035009C00350084085F04FE
:100800000204082636016502360166026E0278206F
:100810006726039E1A8000002410490082000410FD
:10082000492ABA006704022A082670006B0071008A
:100830006B00A502CE0A6726039E1A800000209254
:10084000490002400490092ABA007F0E035508406F
:100850001A2300D0803100350031006800310006D5
:10086000013100080131005E1F640067007310024F
:10087000480926AB66AA7F180281081A9A9B9A9AA1
:10088000991000460311002E02110047031100B811
:1008900018673403AA086082002080410490412A2E
:1008A00002080082010412410480540058005400E0
:1008B00005015400200D5B015B015B015C01773099
:1008C00003D5086000000012492492428000000015
:1008D00012492492405B0058005B000B015B00252D
:1008E0000E6901660169016701672803FD088092AE
:1008F000000092000010400482092A974837003710
:10090000003700A7003700E11137002225C001BDE4
:1009100001C201BC016726039E1A8000002482499F
:100920000480400012092ABA000011023309412450
:100930001241000300F0010300E9020300D0057337
:100940001002480916AB56A90F00ED011000ED0189
:100950001000BA02100086055F0A02600916E590D1
:100960009800D7019A009C009A00D5019A00830B49
:10097000672603781BA0020104904820000004921F
:10098000492B3D005F02028A09100D047810100403
:1009900000006726039E1A8000002492090082004E
:1009A0000410492ABA00771C03B6090CB2CA4913CD
:1009B0000B2CB29244B02E002C0131002A013100E0
:1009C00088023100E5033100F00B6F3403E3096066
:1009D00090402080402090412A0241008201008204
:1009E000410480550059005500080155004A0D5B2F
:1009F000015E015C015E01631802020A6A8283AA39
:100A000082810D00BD010D00A2020D00A3020D00A8
:100A1000E711000B021A0A0560540300EA03030001
:100A2000D7050300F30B671802310A455002455001
:100A3000010E00EB010E00E7020E003A14672603D8
:100A4000781BA400490092002002000490492B3D2D
:100A500000672603781BA0024004900920020004CE
:100A600090492B3D00670E026E0A2A5DA960300096
:100A700096003200950032005B013200780B771A45
:100A8000028A0A1A56A5D695A9403100CD00310038
:100A9000CE003100C80131006A0E673402AC0AD5BD
:100AA000501511655405445955015115350035004F
:100AB0003500A0003500A1064603A601672603788D
:100AC0001BA010000482492002000490492B3D0025
:100AD000732E03E70A470000000004646200E00090
:100AE0002B231007000080320032003200630032F6
:100AF00000FB003200FC003200A5053200062B6628
:100B000000310066006200831F03180B049249261F
:100B10003472249AD1C892482F000B01320037005A
:100B200032006E0032000901320007083200552FF2
:100B300064003900672603781BA082082410410452
:100B400010012082480B3D00671802530B554042AC
:100B50005540410E00EB010E00E7020E003E137FF0
:100B600015036C0B4700233C0159E00431003400AD
:100B7000310066003100FA003100FC003100490903
:100B80003100E92E640034006400660067260378B3
:100B90001BA002480490012000400492092B3D0054
:100BA000672603781BA480410012082490400002AD
:100BB000092B3D006726039E1A848000208249008D
:100BC00002000490492ABA406F2202D60B2220006C
:100BD00001C88800004030002D0130008B02300039
:100BE000E9033000B90B672603FA0B808000081276
:100BF0004001C040000409200000320036003200ED
:100C00009E003200A20132008B094B03A20167262D
:100C100003781BA002480490012012400480092B95
:100C20003D007718022D0C1A9A9B9A9A990F004C46
:100C30000310002D0210004C0310006814772202EC
:100C40004B0C68082000EA020800101C005C001C25
:100C500000D5001C00D6001C00D30A678803930C43
:100C60006082082410410012400480092A020820F2
:100C7000904104004900120024A808208241041079
:100C8000012400480092A020820904104004900131
:100C90002002483500360035009C003500EE09532F
:100CA00003A9015503A801675802C20CD4550000DE
:100CB00040155400015556D455000040155400010C
:100CC000555535003B003500AB003500FE087F036D
:100CD000C101771A02DE0C050151814054402E00FB
:100CE000CE002E00CB012E00770D6726039E1A84BE
:100CF00000480402010480090012402ABA40672615
:100D000003781BA000410492082490400002092BA4
:100D10003D00673402240DD4001510250005440958
:100D2000400151013200360032009F0032000309B9
:100D30004603A601674403530D849000049000000D
:100D400080000412492A12400012400002000010E4
:100D50004924B035003F003500AC0035007811362D
:100D6000000000C701D401674003840D049252289B
:100D7000928C44928945245344925228928C4492F6
:100D8000894524511800BE00190050001900BE000A
:100D9000190067101900BF126B6403C30D60800057
:100DA0000000080000002000000412480412482A35
:100DB0000200000000200000008000001049201008
:100DC0004920802C002D002C0083002C00261D5A69
:100DD00001B0005A01B200771A02E30D1A56A6D6E6
:100DE00095A9902B00CE002E00CC002E00C8012E1D
:100DF00000A00D831F03040E049249263589249A0E
:100E0000D62492482F0009013300360033006C00CD
:100E1000330007013300050833007F2D64006D00A7
:100E20006F2803340EA40800000000642C408000EA
:100E3000000006412B002F002B005B002B008420BC
:100E400058002F008500850008015A0008015B004A
:100E5000632603640E84104008820801D20820042F
:100E6000410400402C0032002C0093002C00BF01F4
:100E70002C00BC0817038E0119038D016344039BEA
:100E80000E6000002002090402010090482A0000C0
:100E90000080082410080402412080380036003801
:100EA00000A6003800690F8003BA018003BB016708
:100EB0002603781BA40000009249240000009249F8
:100EC0002B3D00632603E315849249200000049221
:100ED000000000492ABA406326038219A48000203A
:100EE00012490002000490492A3840632603FF0E8D
:100EF000A000082492410082000410492E28003AE4
:100F0000003D003A00D3003A006E254900441073BA
:100F100003D3001A04EE01672803B7158090400040
:100F200090400492000000492A9748672803B715AB
:100F30008000000000000492000000492A974863E6
:100F40002603E31580020004904924920000004922
:100F50002ABA006326038219A48000201249049251
:100F6000492000000A38406326038219A400490082
:100F700092002002000490492A3840672803B715E0
:100F80008002000002000492000000492A97486392
:100F90003403A80F6402080002090412490A100869
:100FA0002000082410492410560057005600020162
:100FB00056000A0D5A015C015C015B01672603784B
:100FC0001BA000090492402000000492492B3D0020
:100FD0006F2202DE0F29596555EA565955702B00CC
:100FE000AB002D003C002D00AA003600FD0867264E
:100FF000039E1A8000000412482400000092492A2F
:10100000BA00672603781BA000000492492400411F
:101010000092082B3D006726039E1A84800024104E
:10102000410080012412480ABA406726039E1A80B4
:1010300080400492492092000400492ABA0067289F
:101040000352108002000002000482000010492AAE
:10105000170838003A003800AE003800C5113800D3
:10106000E824B801BE016F1603501B10946231983A
:101070004A311800674403931060900020800004F8
:1010800002010090482A0240008200001008040279
:10109000412080370039003700A700370030117F2A
:1010A00003C0018103BF01674402BD10D1001100DC
:1010B000040011556D10011000400115553600381F
:1010C000003600AA0036003F13C301BF01433402BB
:1010D000DF10D541514014042D5415140140413006
:1010E0000064003000C80030001A04900190016FC5
:1010F0001403FC1010AB118CC2AC460058005A000F
:1011000058005B005800B50058001023B1005B0088
:10111000B100B500672603781BA0020004904920A7
:1011200080400412092B3D006726039E1A80004070
:101130000412080492400000092ABA0067260350EE
:1011400011A002400490092002000490492A3800AE
:10115000380045003800AE003800451038007125D1
:101160007003DE007003B3016B64039311608208A7
:101170002082410492002080400090400400412AD7
:101180000208208209041248008201000241001076
:101190000104802A002E002A007E002A004D1B5BDD
:1011A00001B0005B01B100672C03BD1164000000B9
:1011B00000400080A1000000001000201037003C1B
:1011C000003700A5003700EC08BD01B501C001B42F
:1011D000016B6403FC1160800000000800004020E7
:1011E00000000412480412082A0200000000200037
:1011F00001008000001049201048208029002B00A9
:10120000290080002900341D5001AB005201A900C3
:101210006F18034F171092494633092494606F18D2
:10122000032C120A12492AB2A12492A8580059008C
:1012300058005A005800B3005800B822B1005A00B4
:10124000B100B300632802531218461868471846C5
:1012500018684430003400300099013000F8013043
:1012600000FA26001B02BF14815040B81504086321
:1012700026038219A082082410410490082002410C
:101280000A380067220291128045040114100450AC
:101290004028001301A0009A00E0019B006F160394
:1012A0004F1710A26231985131180063260382193A
:1012B000A092090400402010400482092A38005FEF
:1012C0003403D8126000010410492482082A000067
:1012D00004104124920820A0330062003300C200B1
:1012E0006600A303860186018601870163260382C7
:1012F00019A400410092082002000490492A3840B5
:101300006326038219A08208241041000000249261
:10131000490A38006326032A16A0900000900000B6
:1013200010400482092A38004708022F1311402573
:1013300000B500250010016721024513400208A2F4
:10134000E0008228401B004C001B00B6001B00B7C9
:10135000001B007F0C6326038219A0000004924941
:101360002482000010492A380063180274138C305C
:101370000DCC300C2B0079002B00DD2482002D00D9
:1013800083002D00632603E31580024924900000AA
:1013900080000412492ABA00672102A613C0450240
:1013A00001140804500026001401A5009A009F01B2
:1013B0009B00E6029A00434E03D913849201241243
:1013C0000004800809924804904800120020264931
:1013D000201241200048008080300062003000C5AB
:1013E0000062004E038B018801A107880145340289
:1013F0000A1CC001515554042C001515554040637A
:1014000026038219A492492000000492480000019A
:101410002A38406326038219A002080490412482DE
:10142000000010492A38006326038219A00008240E
:1014300092410482000010492A3800632603821971
:10144000A000080492412400400092092A38006359
:1014500026038219A412090080402010400482094A
:101460002A38407712036F148DA4080404924C1696
:101470000065001600DB00170065001700DB001F89
:1014800000DA00630E028C142A5DA9602D0094001E
:101490002E0094002E005F012E00DD0A6B0802A3CF
:1014A000142A573700C1003900C000390080013AC2
:1014B000000000001B02BF14815114B81511440331
:1014C000000A000300140003001E000300EA314775
:1014D0001C02E81422201572220154471E02E8144F
:1014E0002221401C888500403300E80033000002C0
:1014F000330018033300430B6326038219A490487A
:101500000002012080400412092A38406326038229
:1015100019A010012482480002400490092A3800D2
:101520004730023115C00001555552C000015555D4
:1015300050500058005000FE005000A60E67014BAE
:1015400001570B024915141140120156031201C232
:1015500007632603E31580000004924924920000EB
:1015600000492ABA006326038219A00040049209A8
:101570002492092000400A380087170387150B12B0
:101580006344926B449250330015013400350034AB
:10159000006900340015013400DF093400093267A6
:1015A000003600672803B715809000009000049271
:1015B000000000492A97483A0035003A00A7003A4F
:1015C000008E113A00CF25C701C101C801C10163D6
:1015D0002603E3158490000002492080000412498C
:1015E0002ABA40330033003300A000330000103328
:1015F000002925AF01B4017303DB0063180206164E
:101600001575565575542B0078002B0079002B006A
:10161000A30D83002D006326032A16A480002082D8
:10162000490002000490492A384036004100360043
:10163000AA00360003103600DC218303E200830396
:10164000A501331A024E16E22080788820003A0065
:101650003E003A00BA0A75003E00F2003E00630800
:101660000265160604710065007100C900710093DF
:101670000A63040277161171006500B002930A63D1
:1016800026038219A4104000820920804004120918
:101690002A38405F0B029B1680450027000701A4F3
:1016A00000A3000202A4006B0B02AF16159A9C5215
:1016B0000045025400FA0054004402550000005F47
:1016C0001602CA1616665D59995060005D006100E9
:1016D0005D0061001F016100670D672603781BA094
:1016E00000410492082492480000012B3D006764E9
:1016F000031917601040048009000000001000204A
:1017000082002000000A00410012002400000000B6
:1017100040008208008000000028002B0028007A8A
:10172000002800B1144E019C0050019B0067260365
:101730009E1A8000410412082080000412492ABA2F
:10174000006F18034F1706124946326124946058FF
:1017500000590058005A005800B30058001123B136
:10176000005A006726039E1A8000410412082000D8
:10177000000492492ABA006F160385170C9253464B
:10178000164929A2C058005A0058005B005800B5FD
:1017900000B1005B00B1001023672402A717C44505
:1017A00014046C445140447600790076000F0176B1
:1017B000008E1202010F014534020A1CC5411110AE
:1017C00014446C541111014444652203DB1709943D
:1017D0005365329985328A6CA6532031003100312D
:1017E00000320031009A013100FE013100263167DC
:1017F000340308186492490000000002492A124983
:10180000240000000009249054005A0054000801EC
:1018100054008E0D5A015E015B015E01671A032BB5
:1018200018692410400312482080003A003C003A16
:1018300000090A76003C00ED003C00EE003C00632D
:101840002C024F18A11861A1187A11861A1186303E
:10185000003400300099013000F8013000DD2867C5
:1018600026037318800240000240000001249248C1
:101870000ABA0035003C003500AF0035006F113565
:1018800000ED247C03C2017F03E1006726039F185B
:1018900080104008820801C0082004410400003084
:1018A0000034003000A0003000900130001F091FFC
:1018B000039001672603C718A01000048249200284
:1018C000000490492B3D003C0037003C00A3003C45
:1018D0000003103C00E2253D0000008203CD01849E
:1018E00003E6006764030E196010400480090000DD
:1018F000000010002010002080000A0041001200AB
:101900002400000000400080400082000000280009
:101910002A0028007C002800F9114501A300460197
:10192000A3006788035A19608208241041001240FE
:101930000480092A02082090410400490012002472
:10194000A8082082410410012400480092A02082AF
:10195000090410400490012002483300370033008E
:10196000A1003300060A5103AD015103AE01632605
:10197000038219A002480490012080400412092A21
:101980003800380039003800AF0038003610380011
:101990001B258203E3008203C101732202A81954AC
:1019A00004100095010400101C005A001C00D30014
:1019B0001C00CB09672603781BA080010412482471
:1019C00000000092492B3D00672603781BA0000908
:1019D0000492402480000012492B3D00673003F33D
:1019E00019801240040009001241248201001048AD
:1019F00024AAE8350037003500A700350000093576
:101A00000099247D03C0017F03BF01673403241ABA
:101A10006412082400082010092A10482090002091
:101A200080402490510057005100FE005100D00C1E
:101A30004B0150014B0151016726034C1AA0004194
:101A40000492082490400002092B3D003700370023
:101A50003700AC003700C70F37008424380000007F
:101A60007403BA017503E1006734027A1AD40015D1
:101A700010250005440940015101330037003300AF
:101A80009E003300EE084903A3016726039E1A84D3
:101A900090002080080000092492400ABA403500D6
:101AA00038003500AB0035006E0F35007F2582030E
:101AB000C3018403E200674403D51A64004900921D
:101AC000002082010410482A1001240248008208E4
:101AD000041041209038003A003800AA003800ABCA
:101AE0000F8203C2018403C101652203FB1A09941A
:101AF000532994D985328A65329B203100310031D7
:101B000000320031009A013100FE0131004B2F6795
:101B100044032E1B649000049000008000041249CE
:101B20002A124000124000020000104924903200A6
:101B30003E003200AC003200BD11C001D201C20132
:101B4000D1016F1803501B10924946330924946049
:101B500058005A0058005B005800B5005800102388
:101B6000B1005B00672603781BA0000104924820A7
:101B700080400412092B3D00370039003700AA00CD
:101B800037006D0F37009725380000008203C5012C
:101B90008403E200674002A91B155A656795659AA0
:101BA0009B955A656795659A991A00B9001B005074
:101BB000001B00B9001B00C5116B6403E41B6080AF
:101BC0000000000800000020000004124804124831
:101BD0002A020000000020000000800000104920C0
:101BE000104920802A002E002A0085002A005F1D4F
:101BF0005B01B0005B01B1004534020A1CD5411104
:101C00000014446D54111001444532006400320048
:101C1000C8003200200390019001671A02261CE2DE
:101C20002080788820103C003C003C008C0A780022
:101C30003C00F0003C0011241FBECFE5D2E0DEBF27
:101C4000CDBF10E0A0E6B0E0EAE0FFE102C0059001
:101C50000D92A236B107D9F710E0A2E6B0E001C0BC
:101C60001D92A636B107E1F79AD04DC1C9C11F93A5
:101C7000CF93DF93182F90916300409164005091AF
:101C80006500E091620060E070E080E0A12FB0E0CC
:101C900011971DC0911105C0FA014F5F5F4FE4918C
:101CA00098E091502E2F30E0092E02C035952795EF
:101CB0000A94E2F721703327ED01C61BD70B0C2ED7
:101CC00001C0220F0A94EAF7822B6F5F7F4F6117E2
:101CD00008F3909363005093650040936400E09391
:101CE0006200DF91CF911F91089507C02CE00000A2
:101CF00000002150E1F7000001970097B9F708951F
:101D00001ABC13BE88B3856088BB88E10FB6F8940F
:101D100081BD11BC0FBE88EE93E0E7DF80E385BF95
:101D200088950895CF93DF93EB0112BE18BE44232C
:101D300029F022E42ABD21E023BF01C0C098D5DFED
:101D40001ABC13BEC09ACE01DF91CF91CECFC298FC
:101D500088EB9BE0CADFC29A0895CF93C82F03C0D7
:101D600088E99AE3C2DFF3DFC150A895C111F8CF2B
:101D7000CF910895CF93DF93D82FC0E00BC0C298C6
:101D800080E593ECB2DFA895C29A80E593ECADDFD5
:101D9000A895CF5FCD13F3CFDF91CF9108957F92B8
:101DA0008F929F92AF92BF92CF92DF92EF92FF926B
:101DB0000F931F93CF93DF9310BE1ABC13BE84B74B
:101DC00014BE98E191BD11BC95E097BB97E098BB1C
:101DD00082FF03C082E0CEDF93DF88E893E185DFF6
:101DE000D6B2D1FADD24D0F881E0D8268D2D8D5FD2
:101DF000B4DF88EA91E679DF29E288E190E00FB666
:101E0000F894A89581BD0FBE21BDD11003C0B0903C
:101E1000610002C0B090600000E011E08EE1E82EA9
:101E200080E0F82EC12C4EC0A895D11002C0F80158
:101E300001C0F701859194918093640090936500AF
:101E40002091640030916500C9010196F901A490C8
:101E5000A9BCFC01949031968490F9013396859148
:101E60009491C82FD92F2B5F3F4F3093650020935B
:101E70006400712C19C0882DFADE880F880F282F76
:101E800030E0FE01E20FF31F45915491CA01F901C0
:101E90003296EC0FFD1F25913491B90141E0A1105C
:101EA00001C040E03FDF73947910E5CF10926300EA
:101EB00088EA91E61ADF4BDFC3940E5F1F4F82E082
:101EC000E80EF11CCB10B0CF88E10FB6F89481BDBD
:101ED00011BC0FBE8CED9FEF08DF8CED9FEF05DF8F
:101EE00084E03BDF0DDF80E090E0DF91CF911F9138
:101EF0000F91FF90EF90DF90CF90BF90AF909F90A9
:0A1F00008F907F900895F894FFCFB2
:021F0A007173F1
:00000001FF
